:1000000014C038C037C036C035C0C2C033C032C0DB
:1000100031C0C8C02FC02EC02DC02CC07CC02AC08B
:1000200029C028C027C026C0200111241FBECFEF41
:10003000D2E0DEBFCDBF11E0A0E0B1E0EEE0F3E042
:1000400002C005900D92A630B107D9F721E0A6E0D5
:10005000B1E001C01D92A732B207E1F710E0C5E19F
:10006000D0E003C02197FE014AD1C431D107D1F7B6
:10007000C4D04BC1C5CF0895DC019FB7F894179643
:10008000ED91FC9118972081613021F412968C91AA
:10009000822303C011968C91822B80839FBF089589
:1000A00060E0EACF0F931F93FC0160835483438386
:1000B000368325831087078381E090E001C0880F95
:1000C0006A95EAF7818380958283CF011F910F9112
:1000D000E7CFDC019FB7F8941596ED91FC91169748
:1000E0002081611104C012968C91822303C0119665
:1000F0008C91822B80839FBF0895DC019FB7F89479
:100100001596ED91FC911697208111968C9182277E
:1001100080839FBF08951F920F920FB60F921124F4
:100120002F933F934F938F939F93AF93BF934FB76B
:10013000F8948091230190912401A0912501B09120
:1001400026013091220126E0230F2D3720F402965C
:10015000A11DB11D05C029E8230F0396A11DB11DE6
:10016000209322018093230190932401A0932501E1
:10017000B09326014FBF7894BF91AF919F918F911B
:100180004F913F912F910F900FBE0F901F90189598
:100190001F920F920FB60F9211240F900FBE0F9067
:1001A0001F9018951F920F920FB60F9211240F9067
:1001B0000FBE0F901F9018952FB7F89460912301F0
:1001C0007091240180912501909126012FBF789490
:1001D000089585B5836085BDEEE6F0E0808181609D
:1001E0008083E1E8F0E0808188608083EFE6F0E0E2
:1001F00080818260808378940895EBDF60E089E1FC
:1002000091E03ADF60E080E191E036DF60E089E193
:1002100091E05FDFD1DF6B017C01CEDFDC01CB0140
:100220008C199D09AE09BF09883E9340A105B1050F
:10023000A0F389E191E061DF80E191E05EDFEACF48
:100240000F931F93CF93DF9304E210E025E230E099
:1002500043E250E065E089E191E024DF0AE210E04A
:100260002BE230E049E250E066E080E191E01ADF05
:10027000809100018093060186E290E090930B014B
:1002800080930A0188E290E090930D0180930C0125
:1002900087E290E090930F0180930E01E6E0F1E099
:1002A00021E030E0A0910E01B0910F014C91EF01DF
:1002B000C901019002C0880F991F0A94E2F7842BAC
:1002C0008C93A0910C01B0910D014C91C901088053
:1002D00002C0880F991F0A94E2F7B90102C0660FA5
:1002E000771F8A95E2F7CB01842B8C9371E0EB307A
:1002F000F707C1F6DF91CF911F910F910895EE0F8F
:0E030000FF1F0590F491E02D0994F894FFCFB3
:06030E00000102030400DF
:00000001FF
