:200000004CC066C065C064C063C062C061C060C05FC05EC05DC05CC05BC05AC0CAC158C091
:2000200057C056C055C054C000000000000000000003040000000000000000000000000063
:20004000000000000102040810204080010204081020408080010204081020010204084094
:200060000404040404040404020202020202020203030303030303010101010300002C0008
:2000800023002600290000002E00250028002B0000002D00240027002A0011241FBECFEFD6
:2000A000D2E0DEBFCDBF11E0A0E0B1E0E0EAF6E002C005900D92A230B107D9F721E0A2E0F0
:2000C000B1E001C01D92AD30B207E1F7DFD2E6C297CFCF93DF93C8E0D0E080910001ACD236
:2000E00061E0892B09F060E0809100016BD262E370E080E090E0CDD1219779F7DF91CF9188
:20010000089561E088E020D261E08DE01DD261E089E01AD261E08AE017D261E08CE014D24D
:2001200061E08BE011D261E08DE04CD262E0809102010AD261E08091000106D2CACF8F924D
:200140009F92AF92BF92CF92DF92EF92FF920F931F93CF93DF93082FE62E8BE06DD2892B27
:20016000E1F310E0000F111F000F111FF12CEE0CFF1CEE0CFF1C6AE0C62ED12CC0E0D0E06B
:2001800088248394912C54010C2C02C0AA0CBB1C0A94E2F7C5018023912361E0892B09F47D
:2001A00060E089E00FD2AE20BF2061E0AB2809F460E08AE007D2CC0FDD1F8BE03DD2C82B30
:2001C000D92B61E08CE0FED160E08CE0FBD181E0C81AD108C0F6CE019595879595958795FA
:2001E000DF91CF911F910F91FF90EF90DF90CF90BF90AF909F908F9008950F931F93CF93D4
:20020000DF931F92CDB7DEB7082F162F6CE480E4998395DF6CE2812F92DF9981692F80E061
:200220008EDF602F80E00F90DF91CF911F910F9186CF6CE484E083DF68E680E080DF6CE6D9
:2002400080E07DDF6CE484E07ADF6AE780E077DF6EE780E074DF6CE484E071DF6AE680E012
:200260006EDF6EE680E06BCF1F93CF93DF9311E0C0E0D0E06CE488E062DF6CE0812F5FDF49
:2002800068E680E05CDF6CE680E059DFDC2FCC27C80FD11D123011F012E0ECCFCE01DF9199
:2002A000CF911F910895CF93DF9380910201C4D1892B09F064C064E670E080E090E0E9D020
:2002C00080910201B9D1892B09F059C061E08BE03BD160E089E076D160E08AE073D160E0E4
:2002E0008BE070D161E08DE06DD161E088E06AD184E190E0F3D060E08DE064D18AE090E02E
:20030000EDD060E08BE020D18CE291E0E7D0ACDFEC018FDFC73080E9D80741F46AE68CE6D2
:2003200094E66BDF6FEF8CE794E71CC0CB3081E9D80769F0C83081E9D80749F0CE01865015
:200340009249029720F0CB50D349229760F462E68CE694E652DF6FED8CE794E74EDF6FEF9B
:200360008EE696E64ADF65DF60E08CE02BD160E088E028D161E08DE0DF91CF9123C1DF9105
:20038000CF910895E1E8F0E08081887F8083A0E8B0E08C9181608C938C918D7F8C9380813E
:2003A000877F808380818F7E808380818360808308951F920F920FB60F9211242F933F931E
:2003C0008F939F93AF93BF938091050190910601A0910701B09108013091040126E0230F75
:2003E0002D3730F029E8230F0396A11DB11D03C00296A11DB11D2093040180930501909336
:200400000601A0930701B09308018091090190910A01A0910B01B0910C010196A11DB11D59
:200420008093090190930A01A0930B01B0930C01BF91AF919F918F913F912F910F900FBE06
:200440000F901F9018953FB7F8948091090190910A01A0910B01B0910C0126B5A89B05C06A
:200460002F3F19F00196A11DB11D3FBFBA2FA92F982F8827820F911DA11DB11DBC01CD0157
:2004800043E0660F771F881F991F4A95D1F708950895CF92DF92EF92FF92CF93DF936B01CA
:2004A0007C01D1DFEB01C114D104E104F10479F0EFDFC9DF6C1B7D0B683E7340A0F381E064
:2004C000C81AD108E108F108C851DC4FF2CFDF91CF91FF90EF90DF90CF90089583309105E8
:2004E00028F0880F991F04970197F1F7089585B5887F836085BD7894EEE6F0E080818160E5
:20050000808340DFEAE7F0E080818877866880838081806880830895833049F4809180001D
:200520008F7780938000809180008F7B0AC0843051F4809180008F7D809380008091800003
:200540008F7E809380000895CF93DF9387FD8FEF90E0FC01EC5BFF4F2491FC01E05AFF4F4C
:200560008491882361F190E0880F991FFC01E057FF4FC591D491FC01EA57FF4FA591B49166
:20058000611109C09FB7F8948881209582238883EC912E230BC0623061F49FB7F8943881B5
:2005A000822F809583238883EC912E2B2C939FBF06C08FB7F894E8812E2B28838FBFDF910E
:2005C000CF9108950F931F93CF93DF931F92CDB7DEB787FD8FEF282F30E0F901E85DFF4F36
:2005E0008491F901EC5BFF4F1491F901E05AFF4F04910023D9F0882319F069838DDF6981B9
:20060000E02FF0E0EE0FFF1FEA57FF4FA591B4918FB7611106C0F8949C91E12FE095E9230E
:2006200003C0F894EC91E12BEC938FBF0F90DF91CF911F910F910895CF93DF9387FD8FEFE3
:20064000282F30E0F901E85DFF4F8491F901EC5BFF4FD491F901E05AFF4FC491CC2389F05E
:2006600081115ADFEC2FF0E0EE0FFF1FE458FF4FA591B491EC91ED2381E090E021F480E0D1
:2006800002C080E090E0DF91CF91089580916600809366002CDF35DD06DEFECFF894FFCF43
:0206A000020056
:00000001FF
